S01000006B6579626F6172642E73726563C3
S315000000009804002081060000E90400007D06000037
S315000000107D0600007D0600007D0600007D060000CE
S315000000200000000000000000000000007D06000047
S315000000307D060000000000007D0600007D06000031
S315000000400348044B834202D0034B03B11847704761
S31500000050080000200800002000000000064B0749A9
S31500000060C91A891048BF0131491003D0044B0BB19E
S3150000007001481847704700BF08000020080000200C
S315000000800000000010B5064C237843B9FFF7D8FFEF
S31500000090044B13B10448AFF300800123237010BD55
S315000000A02000002000000000F408000008B5054B01
S315000000B01BB105490548AFF30080BDE80840FFF7CE
S315000000C0CDBF00BF0000000024000020F40800009F
S315000000D008B50B4D0B4C002240F20241284600F0B9
S315000000E027F82146052000F0D3F9012240F202410B
S315000000F0284600F01DF82146052000F0C9F9EAE778
S315000001003C00002040420F00FFF7E2BF022800D06B
S3150000011070470249024800F0B7B800BF0008000067
S315000001203C00002008B5FFF7EFFF002008BD00BF28
S315000001300120CBB2984080B202B900040B0A5B01E1
S3150000014003F1804303F5002398600020704700BF49
S315000001502DE9F8430388BBB107464FF00008DFF8E6
S31500000160789000241B4D4FEAC8067B6835F8022BB1
S3150000017099198988914209D00134032CF5D13B881D
S3150000018008F101084345ECD8BDE8F8839B5904F112
S31500000190200203F0B853B3F1807F19F812300CD067
S315000001A0DB09E9D019F81230012123F08003C820B9
S315000001B009F8123000F06CF9DEE7DB09DCD119F83A
S315000001C01230012143F08003C82009F8123000F0F4
S315000001D05FF9D1E72408000000300840F8B506466C
S315000001E0FFF7B6FFEFF31082012383F31088234F46
S315000001F03B681BB92249CB704023CB703B68013367
S315000002003B6082F31088338823B300211D4D08E03C
S315000002101B01134445F82340328801318BB29A42C0
S3150000022018D9736853F8314003EBC1029288E00392
S315000002304FEA1223D2B2EBD502EB031055F820E0B9
S3150000024024F4803C2EF4803E45F820E01B0145F85E
S3150000025020C0DEE7EFF31082012383F310883B68AA
S3150000026013B13B68013B3B603B681BB980200449E6
S31500000270CB70C87082F31088F8BD00BF84000020E0
S31500000280000D08400008084008B5034B0360084607
S31500000290FFF7A4FF002008BD54524F50064B0749F4
S315000002A093F826001A6A51F82030C2F30262044914
S315000002B0D3400B60704700BF00E0014008000020FB
S315000002C090000020704700BFF8B54AF203500123A2
S315000002D04349444AA1F8FE03A2F80431B2F80431B6
S315000002E09BB2002BFAD101204FF400454FF0090CC8
S315000002F03D4CDFF80CE13D4EC4F804E03C4F0EF1F6
S31500000300376E37490EF5D83EE660C4F814E0A2F819
S315000003100001B86038602660A560256191F8262046
S31500000320086A54F82220334EC0F30260C24032609D
S3150000033081F8133481F8A2C091F880341BB991F882
S315000003408134990746D0264D95F88034002B36D057
S315000003500022234B83F8812483F88024002320493C
S3150000036081F8323091F83C301A07FBD54FF498509B
S3150000037000231B4A088581F82A3092F83C309B06F8
S31500000380FBD5032005231749F12581F81C011A49DD
S31500000390116282F8263092F82630106A54F823103B
S315000003A0C0F30260C14031600124F0204FF42541C2
S315000003B0124B1D731C721873A2F8FE13F8BD0121AF
S315000003C0C82085F8801400F063F895F88034012B76
S315000003D0FBD1BDE74FF47A70FFF774FFBEE700BFAD
S315000003E000E0014000C0014008000020002D31015E
S315000003F000700040900000202112002000200040E4
S3150000040000127A0038B500251C4C0121C82084F85A
S31500000410285000F03DF884F8245094F82430002B3E
S31500000420FBD194F82430154A43F0020384F82430B3
S3150000043092F82430C3F340009B07F9D40F4982F8A1
S31500000440220091F8223003F0FF00002BF9D191F839
S3150000045040300A4A60F3C71381F8403092F84030C2
S31500000460DB09FBD192F84200044963F3C71082F816
S31500000470420091F84230DB09FBD138BD003008401C
S31500000480704700BFA0F101000028FBD1704700BFF4
S315000004904FF47A7310B400FB01F1114C114A246831
S315000004A0B2FBF4F2A1FB03043CB9B0FBF2F0800806
S315000004B060B15DF8044BFFF7E5BF9200B1FBF2F1C6
S315000004C0A1FB03132BB908460028F2D15DF8044BB3
S315000004D070474FF0FF3C5DF8044B6046FFF7D2BF14
S315000004E09000002000CA9A3B70B500240B4B0C4EBE
S315000004F0B3F82021B3F84051ADB2154025FA04F304
S31500000500DB0704D556F82430E0B203B1984701342E
S31500000510102CF3D1014BA3F8305170BD00600040A0
S315000005204400002030B5032085B000F07DF86FF060
S31500000530FF054FF0FF31204C002322464FF0010EFD
S315000005401E488564CDE90111039104F1C00532F816
S31500000550020F590960B104A800EB810151F80C0C97
S3150000056003F01F0C0EFA0CFC20EA0C0041F80C0CF0
S31500000570954203F10103EAD10199114B0F4A032079
S315000005801167C3F8801202995167C3F88412039960
S315000005909167C3F8881200F017F80023094834F869
S315000005A0022F03F1C00101330AB140F82120A54210
S315000005B0F5D105B030BD00BF2A080000008000401C
S315000005C000E100E000600040EFF31081012383F3B7
S315000005D01088124B33F8102092B22AB133F810204B
S315000005E0013A92B223F8102033F810309BB293B937
S315000005F010B40B4A0B4CB2F8FE3334F810009BB221
S3150000060043F4254323EA0003A2F8FE3381F310885E
S315000006105DF8044B704781F310887047880000200E
S3150000062000E00140EC08000030B4EFF31081012334
S3150000063083F310880E4A32F810309BB26BB90D4C1A
S315000006400D4DB4F8FE3335F810C09BB243EA0C03E7
S3150000065043F425439BB2A4F8FE3332F8103001333D
S315000006609BB222F8103081F3108830BC704700BF6F
S315000006708800002000E00140EC08000000BE704742
S3150000068008B500F003F8FFF74DFDFEE74FF47002E2
S3150000069070B52B4B2B4CC3F8882000209C60FFF7CD
S315000006A035FDFFF711FE0120FFF730FD2368A3F5A6
S315000006B0806383F30A882448244A0021121A00F032
S315000006C055F82348234A2449121A00F057F8234DB7
S315000006D0234B5B1B002B07DD00249E1055F8043BC3
S315000006E001349847A642F9DCFFF7D8FDFFF78AFEEA
S315000006F00320FFF799FF00234FF6FF70194903F116
S3150000070008020133092B21F81200F8D10024032036
S31500000710FFF75AFF0320FFF787FF134B03205C60A8
S315000007209C60DC601C61FFF74FFF0220FFF7EEFCC8
S31500000730FFF7F8FE2046BDE87040FFF7A1BE00BFF8
S3150000074000ED00E0000000002000002094000020E2
S315000007500000002008000020F8080000000000202B
S3150000076004000020000D084000000E40024403462D
S31500000770934200D1704703F8011BF9E70A44431E70
S31500000780914200D1704710B511F8014B914203F820
S31500000790014FF9D110BDFFFF4275696C742077696E
S315000007A074682052656E6573617320416476616E6C
S315000007B063656420466C657869626C6520536F6674
S315000007C07477617265205061636B61676520766539
S315000007D07273696F6E20352E382E3000352E382E06
S315000007E03000000000000805F8B500BFF8BC08BCE2
S315000007F09E467047F8B500BFF8BC08BC9E467047D9
S31500000800030000000C0800000000000000000100CA
S3150000081008010000000001000003000004000000C1
S3150000082002040000020403040404FFFF00000000A9
S3150000083000000000000000000000000000000000B2
S3150000084000000000000000000000000000000000A2
S315000008500000000000000000000000000000000092
S315000008600000000000000000000000000000000082
S315000008700000000000000000000000000000000072
S315000008800000000000000000000000000000000062
S315000008900000000000000000000000000000000052
S315000008A00000000000000000000000000000000042
S315000008B00000000000000000000000000000000032
S315000008C00000000000000000000000000000000022
S315000008D00000000000000000000000000000000012
S315000008E000000000000000000000000001000200FF
S30D000008F00800100000000000E2
S30D000008F8AD00000085000000C0
S3150100A100FFFFFFFFFFFFFFFFFFFFFFFFFFFFFFFF58
S3150100A120FFFFFFFFFFFFFFFFFFFFFFFFFFFFFFFF38
S3090100A134FFFFFFFF24
S3150100A200FFFDFFFFFFFFFFFFFFFFFFFFFFFFFFFF59
S3150100A210FFFFFFFFFFFFFFFFFFFFFFFFFFFFFFFF47
S3150100A220FFFFFFFFFFFFFFFFFFFFFFFFFFFFFFFF37
S3150100A230FFFFFFFFFFFFFFFFFFFFFFFFFFFFFFFF27
S3150100A240FFFFFFFFFFFFFFFFFFFFFFFFFFFFFFFF17
S3150100A250FFFFFFFFFFFFFFFFFFFFFFFFFFFFFFFF07
S3150100A260FFFFFFFFFFFFFFFFFFFFFFFFFFFFFFFFF7
S3150100A270FFFFFFFFFFFFFFFFFFFFFFFFFFFFFFFFE7
S3150100A280FFFFFFFFFFFFFFFFFFFFFFFFFFFFFFFFD7
S3150100A290FFFFFFFFFFFFFFFFFFFFFFFFFFFFFFFFC7
S3150100A2A0FFFFFFFFFFFFFFFFFFFFFFFFFFFFFFFFB7
S3150100A2B0FFFFFFFFFFFFFFFFFFFFFFFFFFFFFFFFA7
S3110100A2C0FFFFFFFFFFFFFFFFFFFFFFFF97
S7050000068173
